:060000000A128A110C280F
:10000800FE00030EF0000A08F1000A168A158A2C71
:100018000A128A110F288317EF30FD001C30FE00EA
:100028009530FF00E03084000A168A15BB240A12B6
:100038008A1190308400E0300A168A1582240A1248
:100048008A111030840042300A168A1582240A1256
:100058008A118313E6308400EE300A168A1582244A
:100068000A128A11EA01EB01EC01FA01FB01830192
:100078000A168A15CA2D3F3083160313CC00803028
:10008800CB000030CA000030C900B001B1014608F9
:10009800F5004508F4004408F3004308F200003076
:1000A800F9000030F8000030F7000030F6000A16BA
:1000B8008A1548260A128A11031863286428752AA3
:1000C8007528831603133508CC003408CB00330891
:1000D800CA003208C9000130B0070318B10A00305D
:1000E800B107413083120313A8002030A700003065
:1000F800A6000030A500831603134C0883120313CF
:10010800AC00831603134B0883120313AB0083164A
:1001180003134A0883120313AA008316031349081A
:1001280083120313A9000A128A15BB240A128A1122
:1001380083120313280883160313B50083120313CD
:10014800270883160313B4008312031326088316A3
:100158000313B30083120313250883160313B20095
:10016800430883120313CC00831603134408831235
:100178000313CD0083160313450883120313CE001F
:1001880083160313460883120313CF008316031341
:10019800320883120313CC02831603133308031C9B
:1001A800330FD728DA2883120313CD0283160313DB
:1001B8003408031C340FE128E42883120313CE0209
:1001C800831603133508031C350FEB28EE2883121A
:1001D8000313CF0283160313831203134F08F5008A
:1001E8004E08F4004D08F3004C08F2000A168A1570
:1001F800CA240A128A11F51B11297508031D122930
:100208007408031D12297308031D12290230720293
:10021800031D0E29031C11291229652883160313AF
:10022800350883120313C20083160313340883129C
:100238000313C10083160313330883120313C0008A
:1002480083160313320883120313BF0083160313A4
:10025800460883120313C600831603134508831246
:100268000313C50083160313440883120313C40041
:1002780083160313430883120313C3000A168A1153
:1002880036210A128A11031C4A294B29652883162C
:100298000313430883120313CC0083160313440883
:1002A80083120313CD008316031345088312031327
:1002B800CE0083160313460883120313CF00831658
:1002C8000313490883120313CC02831603134A0845
:1002D800031C4A0F7029732983120313CD02831656
:1002E80003134B08031C4B0F7A297D298312031330
:1002F800CE02831603134C08031C4C0F842987294C
:1003080083120313CF0283160313831203134F08B8
:10031800F5004E08F4004D08F3004C08F2000A16E8
:100328008A15CA240A128A11F51BAB297508031D00
:10033800AA297408031DAA297308031DAA290230D3
:100348007202031DA7290318AA29AB293C2A831680
:1003580003134C08C6004B08C5004A08C4004908E6
:10036800C300752A4130F5002030F4000030F30056
:100378000030F200831603134C08F9004B08F8000C
:100388004A08F7004908F6000A128A158E200A1250
:100398008A11750883160313CC007408CB00730800
:1003A800CA007208C900FF30B0070318B10AFF304D
:1003B800B107430883120313CC00831603134408C0
:1003C80083120313CD008316031345088312031306
:1003D800CE0083160313460883120313CF00831637
:1003E8000313490883120313CC02831603134A0824
:1003F800031C4A0F002A032A83120313CD02831613
:1004080003134B08031C4B0F0A2A0D2A83120313EC
:10041800CE02831603134C08031C4C0F142A172A08
:1004280083120313CF0283160313831203134F0897
:10043800F5004E08F4004D08F3004C08F2000A16C7
:100448008A15CA240A128A11F51B3B2A7508031D4E
:100458003A2A7408031D3A2A7308031D3A2A0230FF
:100468007202031D372A03183A2A3B2A3C2AAB2971
:1004780083160313460883120313C200831603135B
:10048800450883120313C10083160313440883121B
:100498000313C00083160313430883120313BF001A
:1004A800831603134C0883120313C6008316031321
:1004B8004B0883120313C500831603134A088312DB
:1004C8000313C40083160313490883120313C300DC
:1004D8000A168A1136210A128A11031C742A752AEF
:1004E800B629831203134B0883160313A90029089E
:1004F800AA0083120313EB1B822A832A8E2A6B0815
:1005080083160313A300831203136A0883160313C5
:10051800A200942A063083160313A2000030A30019
:100528002308AE002208AD000130AD070318AE0A5B
:100538000030AE0766302A06031DA32AA42ABE2A65
:10054800B11FA72AA82AB22A3F30CC008030CB009E
:100558000030CA000030C900B001B1016730290677
:100568000319B72AB82ABE2A3008AD070318AE0AFD
:100578003108AE07C001C1014608BB004508BA00F2
:100588004408B9004308B8004C08B5004B08B4004B
:100598004A08B3004908B200B92B831603134C0864
:1005A800F5004B08F4004A08F3004908F2003B083C
:1005B800F9003A08F8003908F7003808F6000A1276
:1005C8008A158E200A128A11750883120313B50042
:1005D8007408B4007308B3007208B2000A168A11CE
:1005E80054240A128A11831203133508831603133D
:1005F800BF0083120313340883160313BE0083124B
:100608000313330883160313BD0083120313320840
:1006180083160313BC003F08F5003E08F4003D08AC
:10062800F3003C08F2000A168A11BE200A128A1149
:10063800730883160313AC007208AB004C088312CE
:100648000313AC00831603134B0883120313AB0088
:10065800831603134A0883120313AA00831603138D
:10066800490883120313A900831603133F08831252
:100678000313A800831603133E0883120313A7006D
:10068800831603133D0883120313A600831603136E
:100698003C0883120313A5000A128A15BB240A1208
:1006A8008A11831203132808C2002708C1002608EC
:1006B800C0002508BF00831603133B0883120313E9
:1006C800C600831603133A0883120313C500831662
:1006D8000313390883120313C4008316031338085D
:1006E80083120313C3000A168A1532250A128A11C7
:1006F80083120313420883160313BB0083120313E8
:10070800410883160313BA008312031340088316A3
:100718000313B900831203133F0883160313B800A9
:100728004130F5002030F4000030F3000030F200D2
:100738004C08F9004B08F8004A08F7004908F60089
:100748000A128A158E200A128A1175088316031355
:10075800CC007408CB007308CA007208C9000130C5
:10076800C0070318C10A0030C1074108803A831244
:100778000313CC00831603132E08803A8312031345
:100788004C02031DCB2B831603132D084002031CB8
:10079800CE2BCF2BD12A403083120313A800A030D0
:1007A800A7000030A6000030A500831603134C08EC
:1007B80083120313AC00831603134B08831203132D
:1007C800AB00831603134A0883120313AA00831687
:1007D8000313490883120313A9000A128A15BB24BC
:1007E8000A128A1183120313280883160313BF0001
:1007F80083120313270883160313BE0083120313FF
:10080800260883160313BD008312031325088316D5
:100818000313BC003B0883120313C200831603139F
:100828003A0883120313C10083160313390883128D
:100838000313C00083160313380883120313BF0081
:10084800831603133F0883120313C600831603138A
:100858003E0883120313C500831603133D08831251
:100868000313C400831603133C0883120313C30045
:100878000A168A1136210A128A110318442C452CAB
:10088800502C003083160313BF000030BE00003028
:10089800BD000030BC00792C831603133B08F5001B
:1008A8003A08F4003908F3003808F2003F08F90064
:1008B8003E08F8003D08F7003C08F6000A168A15BD
:1008C80048260A128A11031C6A2C6B2C792C831671
:1008D80003132B18702C712C792C0030BF000030BA
:1008E800BE000030BD000030BC00831603133F0873
:1008F800F5003E08F4003D08F3003C08F200460805
:10090800F9004508F8004408F7004308F6000A1201
:100918008A1563220A128A11750883160313BB000D
:100928007408BA007308B9007208B8003B0883124B
:100938000313C200831603133A0883120313C1007A
:1009480083160313390883120313C0008316031395
:10095800380883120313BF004130A8002030A700D5
:100968000030A6000030A500831603133508831253
:100978000313AC0083160313340883120313AB006C
:1009880083160313330883120313AA008316031371
:10099800320883120313A9000A128A15BB240A120B
:1009A8008A11831203132808C6002708C5002608E1
:1009B800C4002508C3000A168A1136210A128A11B2
:1009C800031CE72CE82C3B2D013083160313B007DA
:1009D8000318B10A0030B107413083120313A8008D
:1009E8002030A7000030A6000030A50083160313AE
:1009F800350883120313AC008316031334088312DB
:100A08000313AB0083160313330883120313AA00DE
:100A180083160313320883120313A9000A128A15D6
:100A2800BB240A128A11831203132808831603139E
:100A3800B50083120313270883160313B400831227
:100A48000313260883160313B30083120313250820
:100A580083160313B20066302A06031D342D352D84
:100A68003B2D0130AD070318AE0A0030AE078316E0
:100A780003133508CC003408CB003308CA00320809
:100A8800C9003108A1003008A000A801A401A501EF
:100A9800C001C101AF2E831603134C08F5004B08A3
:100AA800F4004A08F3004908F2003B08F9003A0844
:100AB800F8003908F7003808F6000A128A158E205F
:100AC8000A128A11750883120313B5007408B4005A
:100AD8007308B3007208B2000A168A1154240A1265
:100AE8008A1183120313350883160313BF00831278
:100AF8000313340883160313BE0083120313330849
:100B080083160313BD0083120313320883160313DD
:100B1800BC003F08F5003E08F4003D08F3003C081F
:100B2800F2000A168A11BE200A128A117308803A46
:100B3800FF0080307F02031DA32D0A3072020318C4
:100B4800A62DA72DBD2D831603133F08F5003E08DB
:100B5800F4003D08F3003C08F2000A168A11BE2092
:100B68000A128A11730883160313AC007208AB00CB
:100B7800C32D093083160313AB000030AC002808DE
:100B8800031DC72DC82DF92DA11FCB2DCC2DF92D57
:100B98004708903E84002E30831780000130C70735
:100BA8000318C80A0030C807FF30B6070318B70A89
:100BB800FF30B707A801A80AF92D4708903E84001E
:100BC8003030831780000130C7070318C80A003087
:100BD800C807FF30B6070318B70AFF30B707FF305A
:100BE800A4070318A50AFF30A50724082504031D38
:100BF800FE2DFF2DE12D4708903E84002B08303E46
:100C0800831780000130C7070318C80A0030C807D7
:100C1800FF30B6070318B70AFF30B7074C0883122E
:100C28000313AC00831603134B0883120313AB00A2
:100C3800831603134A0883120313AA0083160313A7
:100C4800490883120313A900831603133F0883126C
:100C58000313A800831603133E0883120313A70087
:100C6800831603133D0883120313A6008316031388
:100C78003C0883120313A5000A128A15BB240A1222
:100C88008A11831203132808C2002708C100260806
:100C9800C0002508BF00831603133B088312031303
:100CA800C600831603133A0883120313C50083167C
:100CB8000313390883120313C40083160313380877
:100CC80083120313C3000A168A1532250A128A11E1
:100CD80083120313420883160313BB008312031302
:100CE800410883160313BA008312031340088316BE
:100CF8000313B900831203133F0883160313B800C4
:100D08004130F5002030F4000030F3000030F200EC
:100D18004C08F9004B08F8004A08F7004908F600A3
:100D28000A128A158E200A128A117508831603136F
:100D3800CC007408CB007308CA007208C900FF30E1
:100D4800A0070318A10AFF30A1070130C007031844
:100D5800C10A0030C1074108803A83120313CC004E
:100D6800831603132E08803A831203134C02031DC3
:100D7800C12E831603132D0840020318C42EC52E56
:100D8800D42E831603134808803AFF0080307F0270
:100D9800031DD02E4B304702031CD32ED42E4F2DCB
:100DA8004F3083160313C0000030C1004008903E46
:100DB8008400831780019030F2004808F400470847
:100DC800F300903083120313CC00831603134708F3
:100DD80083120313CC0283160313400883120313F0
:100DE8004C070A168A157B250A128A1183160313E3
:100DF80047084002C7004808031C480A4102C800C7
:100E08004208031D082F0A2F01300B2F00308312D0
:100E18000313CC00CD014C0883160313C0008312C2
:100E280003134D0883160313C10083120313EC1C2C
:100E38001E2F1F2F642F342FFF3083160313C7076D
:100E48000318C80AFF30C8074708903E84003030AE
:100E580083178000FF30B6070318B70AFF30B707BB
:100E6800831603134108803A83120313CC008316B8
:100E780003133708803A831203134C02031D482FCB
:100E8800831603133608400203184B2F4C2F642F88
:100E9800831603134108803A83120313CC00831688
:100EA80003134808803A831203134C02031D602F72
:100EB8008316031347084002031C632F642F202F57
:100EC80083160313420803196A2F6B2F772FFF30FD
:100ED800C7070318C80AFF30C8074708903E8400B0
:100EE8004208831780004008B6024108031CB70374
:100EF800B7024708903E83120313A7008316031313
:100F0800370883120313A9008316031336088312C4
:100F18000313A800831603132F080A168A110E203C
:100F28000A128A110800F701F31F9B2F9C2FA32F89
:100F3800F209F309F20A0319F30AF701F70AF51F90
:100F4800A62FA72FB02FF409F509F40A0319F50AFB
:100F58000130FF007F08F706F801F90172087304F1
:100F68000319B72FB82FEF2FF601F60AC62F013055
:100F78000310F20DF30DFF3E031DBC2F0130FF00DF
:100F88007F08F607F31FC92FCA2FBB2F01300310A4
:100F9800F80DF90DFF3E031DCB2F73087502031DD5
:100FA800D72F72087402031CDA2FDB2FE22F720886
:100FB800F4027308031CF503F502781401300310DA
:100FC800F30CF20CFF3E031DE32F0130F602031D64
:100FD800EE2FEF2FCA2F77080319F32FF42FF92FCD
:100FE800F809F909F80A0319F90A7908F3007808E1
:060FF800F20008000800F1
:10100200831603136D0883120313AB0083160313B5
:101012006C0883120313AA00831603136B0883124E
:101022000313A900831603136A0883120313A8008B
:101032007508AB007408AA007308A9007208A8001A
:101042002808A0002908A1002A08A2002B08A30052
:1010520017300310A30CA20CA10CA00CFF3E031D21
:101062002A28FF302005A60000302105A700260807
:101072002704031D3D283E2861282808A0002908CE
:10108200A1002A08A2002B08A30001300310A00D22
:10109200A10DA20DA30DFF3E031D47282308220424
:1010A20021042004031D562857285C280230F20030
:1010B2000030F3008D280330F2000030F3008D2859
:1010C200260A2704031D6628672889282808A00005
:1010D2002908A1002A08A2002B08A3000930031046
:1010E200A00DA10DA20DA30DFF3E031D7028230824
:1010F20022042104200403197F2881280130822838
:101102000030A400A5012408F2002508F3008D2870
:101112000430F2000030F3000800790880398312AD
:101122000313A9007908A0002007B000F81F9A282D
:101132009B289C28301430080319A028A128B12824
:10114200300A031DA528A628AE280030F900003079
:10115200F8000030F7000030F600F817F901B9285E
:101162000030F9000030F8000030F7000030F600DF
:1011720075088039FF007F08A9067508A0002007BE
:10118200B100F41FC528C628C72831143108031935
:10119200CB28CC28DC28310A031DD028D128D92815
:1011A2000030F5000030F4000030F3000030F200AF
:1011B200F417F501E4280030F5000030F4000030A7
:1011C200F3000030F2007508740473047204031D06
:1011D200EB28EC2805290030F9000030F800003037
:1011E200F7000030F6008030F8047F30F904290857
:1011F200FF007F08F9047908F5007808F400770801
:10120200F3007608F200622A3008031D09290A2930
:1012120013290030F5000030F4000030F3000030F4
:10122200F200622A3008A000A1012108A3003108BF
:101232002002A200031CA30322087F3EAA00230867
:101242000318013E003EAB007908A8007808A70009
:101252007708A6007608A5000030F9000030F800F3
:101262000030F7000030F6000030AF000030AE0072
:101272000030AD000030AC00B1018F2931080319F4
:101282004329442964290130A0000310A50DA60DAD
:10129200A70DA80DA00B46290130A0000310F60DE2
:1012A200F70DF80DF90DA00B4F29AF1F59295A2937
:1012B2005B2976140130A0000310AC0DAD0DAE0D0C
:1012C200AF0DA00B5D2975082802031D7229740851
:1012D2002702031D722973082602031D7229720850
:1012E2002502031C752976298B292F177208A5025E
:1012F2007308031C730F7E297F29A6027408031C3E
:10130200740F84298529A7027508031C750F8A2981
:101312008B29A8020130FF007F08B1071A30310281
:10132200031C942995293F2928082704260425040B
:1013320003199C299D29BC292C14BC290130A00029
:101342000310F60DF70DF80DF90DA00BA129AF1F33
:10135200AB29AC29AD2976140130A0000310AC0DE5
:10136200AD0DAE0DAF0DA00BAF29FF30AA070318CC
:10137200AB0AFF30AB07F81FBF29C0299F29B10173
:10138200AF1FC429C529E129FF302C05A000FF3079
:101392002D05A100FF302E05A2007F302F05A300EE
:1013A20023082204210420040319D829D929DC297D
:1013B200B101B10AE129761CDF29E029E129D92905
:1013C20031080319E529E629172A0130F60700300A
:1013D20003180130F707003003180130F807003016
:1013E20003180130F907791CF729F829172A76081A
:1013F200A0007708A1007808A2007908A3000130B4
:10140200A400230DA30CA20CA10CA00CA40B022A75
:101412002308F9002208F8002108F7002008F60046
:101422000130AA070318AB0A0030AB072B08803A39
:10143200FF0080307F02031D202AFF302A02031C96
:10144200232A242A322AFF3083120313AA000030EF
:10145200AB000030F9000030F8000030F700003037
:10146200F600831203132B08803AFF0080307F02BC
:10147200031D3D2A01302A020318402A412A4E2A1E
:1014820083120313AA01AB010030F9000030F80007
:101492000030F7000030F600A901831203132A0876
:1014A200B000301C552A562A582AF8175C2A7F3079
:1014B200FF007F08F8053008A0000310200CF90097
:1014C200F82808007508803983120313A8007508EC
:1014D200A0002007AA00F41F6F2A702A712A2A147A
:1014E2002A080319752A762A862A2A0A031D7A2AC5
:1014F2007B2A832A0030F5000030F4000030F3002C
:101502000030F200F417F5018E2A0030F5000030A9
:10151200F4000030F3000030F20079088039A900AD
:10152200290828060319962A972A982A281779083B
:10153200A0002007A900F81F9F2AA02AA12A291487
:1015420029080319A52AA62AB62A290A031DAA2AA6
:10155200AB2AB32A0030F9000030F8000030F7005F
:101562000030F600F817F901BE2A0030F900003009
:10157200F8000030F7000030F6002A0829020318AC
:10158200C32AC42AEA2A281FC72AC82ACC2A80309A
:10159200FF007F08A8062A08AB002908AA002B082A
:1015A200A9007208AB007608F2002B08F600730857
:1015B200AB007708F3002B08F7007408AB0078083B
:1015C200F4002B08F8007508AB007908F5002B0829
:1015D200F900AB012908A000A1012108A3002A08F3
:1015E2002002A200031CA3032308803AFF008030DC
:1015F2007F02031DFE2A1A302202031C012B022B3A
:10160200392B7508740473047204031D092B0B2B08
:1016120001300C2B003083120313AB000030F500B5
:101622000030F4000030F3000030F2002908AA0074
:10163200412B2B1C1D2B1E2B252B2B08A00003102E
:10164200200C0138AB00272B0310AB0C721C2A2B89
:101652002B2B2C2BAB170130A000750DF50CF40CC5
:10166200F30CF20CA00B2E2B0130FF007F08AA070F
:101672008312031329082A02031C402B412B1A2B25
:10168200281B442B452B8E2B2A08031D492B4A2B42
:10169200532B0030F5000030F4000030F30000302E
:1016A200F200BA2C7608F207770803110318013EFC
:1016B20003195C2BF307780803110318013E031981
:1016C200632BF407790803110318013E03196A2BEF
:1016D200F507751C6D2B6E2B422C2B1C712B722B5C
:1016E200792B2B08A0000310200C0138AB007B2BB8
:1016F2000310AB0C721C7E2B7F2B802BAB1701309F
:10170200A000750DF50CF40CF30CF20CA00B822B5F
:101712000130FF007F08AA07422C7508803AFF00BB
:101722007908803A7F02031DA02B78087402031DFA
:10173200A02B77087302031DA02B760872020318F0
:10174200A32BA42BFC2BFF30A000FF30A100FF3005
:10175200A200FF30A3007608A4007708A50078084D
:10176200A6007908A7007208A4027308031C730F6D
:10177200BB2BBC2BA5027408031C740FC12BC22BFC
:10178200A6027508031C750FC72BC82BA7022408D5
:10179200A00725080318250FCF2BD02BA107260859
:1017A2000318260FD52BD62BA20727080318270AC2
:1017B200A3072308F5002208F4002108F3002008FB
:1017C200F2008030FF007F08A806AB09AB0A2B08A5
:1017D200031DEC2BED2B0A2C0130F207003003180D
:1017E2000130F307003003180130F407003003180A
:1017F2000130F5070A2C7608F2027708031C770FEE
:10180200F3027808031C780FF4027908031C790F9D
:10181200F5027508740473047204031D112C122C52
:101822003E2C2B08031D162C172C3E2C0030F500E5
:101832000030F4000030F3000030F200BA2C013026
:10184200A0000310F20DF30DF40DF50DA00B222CE8
:10185200AB1F2C2C2D2C2E2C72142B1C312C322C29
:10186200352C0314AB0D372C0310AB0D2A080319CA
:101872003B2C3C2C3E2C0130AA02F41F412C422C62
:10188200202CA901AB1F462C472C552C2B087F3945
:1018920003194C2C4D2C502CA901A90A552C721C51
:1018A200532C542C552C4D2C29080319592C5A2CE5
:1018B2008E2C0130F207003003180130F30700309C
:1018C20003180130F407003003180130F507751CC6
:1018D2006B2C6C2C8E2C7208A0007308A10074086B
:1018E200A2007508A3000130A400230DA30CA20CD2
:1018F200A10CA00CA40B762C2308F5002208F400FE
:101902002108F3002008F2002A0A0319892C8A2CE4
:101912008E2C0130FF007F08AA072A0A0319922C95
:10192200932C982C2A08031D972C982CA62C003057
:10193200F5000030F4000030F3000030F2002A0815
:10194200031DA42CA52CA62CA8012A1CA92CAA2C68
:10195200AC2CF417B02C7F30FF007F08F4052A0866
:10196200A0000310200CF500A81FB82CB92CBA2C2B
:10197200F51708008312031328088039B2002808DB
:10198200AD002D07B400A71FC72CC82CC92C3414D6
:1019920034080319CD2CCE2CDD2C340A031DD22C95
:1019A200D32CDB2C0030A8000030A7000030A600AA
:1019B2000030A500A717E52C0030A8000030A700D2
:1019C2000030A6000030A5002C088039FF007F08F7
:1019D200B2062C08AD002D07B300AB1FF12CF22C80
:1019E200F32C331433080319F72CF82C072D330A80
:1019F200031DFC2CFD2C052D0030AC000030AB008B
:101A02000030AA000030A900AB170F2D0030AC0047
:101A12000030AB000030AA000030A90033080319DF
:101A2200132D142D192D3408031D182D192D222DB7
:101A32000030A8000030A7000030A6000030A5004A
:101A4200FF2F2508F2002B080A168A15A1250A1273
:101A52008A15730883120313BE007208BD003D0885
:101A6200AD00AE01AF01B0013008B8002F08B700D9
:101A72002E08B6002D08B5003E08AD00AE01AF013C
:101A8200B0013008BC002F08BB002E08BA002D0898
:101A9200B9002608F2002A080A168A15A1250A1298
:101AA2008A15730883120313BE007208BD003D0835
:101AB200AD00AE01AF01B0012D08B5072E0803112C
:101AC2000318013E0319662DB6072F0803110318E8
:101AD200013E03196D2DB707300803110318013EAB
:101AE2000319742DB8073E08AD00AE01AF01B00175
:101AF2002D08B9072E0803110318013E0319822D80
:101B0200BA072F0803110318013E0319892DBB07D9
:101B1200300803110318013E0319902DBC07270852
:101B2200F20029080A168A15A1250A128A157308D5
:101B320083120313BE007208BD003D08AD00AE0162
:101B4200AF01B0012D08B5072E0803110318013E9D
:101B52000319AC2DB6072F0803110318013E031910
:101B6200B32DB707300803110318013E0319BA2D2C
:101B7200B8073E08AD00AE01AF01B0012D08B907AC
:101B82002E0803110318013E0319C82DBA072F08A6
:101B920003110318013E0319CF2DBB0730080311AF
:101BA2000318013E0319D62DBC070830AD000310FF
:101BB200B50DB60DB70DB80DAD0BD82D2608F20038
:101BC20029080A168A15A1250A128A157308831292
:101BD2000313BE007208BD003D08AD003E08AE0012
:101BE200AF01B0012D08B5072E0803110318013EFD
:101BF2000319FC2DB6072F0803110318013E031920
:101C0200032EB707300803110318013E03190A2EE9
:101C1200B8072508F2002A080A168A15A1250A1211
:101C22008A15730883120313BE007208BD003D08B3
:101C3200AD003E08AE00AF01B0012D08B5072E0879
:101C420003110318013E0319272EB6072F080311AB
:101C52000318013E03192E2EB7073008031103188B
:101C6200013E0319352EB8070830AD000310B50D3B
:101C7200B60DB70DB80DAD0B372E2508F2002908A9
:101C82000A168A15A1250A128A15730883120313EC
:101C9200BE007208BD003D08AD003E08AE00AF01B7
:101CA200B0012D08B5072E0803110318013E0319D0
:101CB2005B2EB6072F0803110318013E0319622E8B
:101CC200B707300803110318013E0319692EB8073C
:101CD2002608F2002B080A168A15A1250A128A156F
:101CE200730883120313BE007208BD003D08AD00E5
:101CF2003E08AE00AF01B0012D08B9072E0803114E
:101D02000318013E0319862EBA072F080311031880
:101D1200013E03198D2EBB07300803110318013E43
:101D22000319942EBC072708F2002A080A168A15FE
:101D3200A1250A128A15730883120313BE007208C2
:101D4200BD003D08AD003E08AE00AF01B0012D0858
:101D5200B9072E0803110318013E0319B12EBA0761
:101D62002F0803110318013E0319B82EBB073008D0
:101D720003110318013E0319BF2EBC072708F20006
:101D82002B080A168A15A1250A128A1573088312CE
:101D92000313BE007208BD003D08AD003E08AE0050
:101DA200AF01B00108300310AD0DAE0DAF0DB00D97
:101DB200FF3E031DD42E2D08B9072E080311031868
:101DC200013E0319E52EBA072F0803110318013E3D
:101DD2000319EC2EBB07300803110318013E031947
:101DE200F32EBC073508AD003608AE003708AF0049
:101DF2003808B00018300310B00CAF0CAE0CAD0CAC
:101E0200FF3E031DFC2E2D08B9072E0803110318EF
:101E1200013E03190D2FBA072F0803110318013EC3
:101E22000319142FBB07300803110318013E0319CD
:101E32001B2FBC070830AD000310B50DB60DB70D52
:101E4200B80DAD0B1D2F34083307AD00AE01AE0D3A
:101E52002D08823EBD002E080318013EFF3EBE0043
:101E62004F2F0130AD000310B90DBA0DBB0DBC0DE3
:101E7200AD0B342FB81F3E2F3F2F402F39140130A6
:101E8200AD000310B50DB60DB70DB80DAD0B422F59
:101E9200FF30BD070318BE0AFF30BE07BB1F522F1B
:101EA200532F322FB301B81F572F582F742FFF30E3
:101EB2003505AD00FF303605AE00FF303705AF0007
:101EC2007F303805B00030082F042E042D0403198A
:101ED2006B2F6C2F6F2FB301B30A742F391C722F23
:101EE200732F742F6C2F33080319782F792FAA2F91
:101EF2000130B907003003180130BA070030031867
:101F02000130BB07003003180130BC073C1C8A2F8C
:101F12008B2FAA2F3908AD003A08AE003B08AF005C
:101F22003C08B0000130B100300DB00CAF0CAE0C6B
:101F3200AD0CB10B952F3008BC002F08BB002E084A
:101F4200BA002D08B9000130BD070318BE0A0030DF
:101F5200BE073E08803AFF0080307F02031DB32F88
:101F6200FF303D02031CB62FB72FC22F7F308312E2
:101F72000313BC008030BB000030BA000030B9004F
:101F8200F32F831203133E08803AFF0080307F0252
:101F9200031DCD2F01303D020318D02FD12FDD2F8D
:101FA200003083120313BC000030BB000030BA00C3
:101FB2000030B900B201F32F831203133D08B400BD
:101FC200FF30B905FF30BA057F30BB050030BC05D4
:101FD200341CEC2FED2FEE2FBB173408AD0003108D
:101FE2002D0CBC003208FF007F08BC043C08A8008E
:0E1FF2003B08A7003A08A6003908A500080021
:10200600750874047304720403190A280B280D2832
:102016008030F506080083120313AD00A91F1428AB
:1020260015281728A801A901AB01AC012F282030DB
:10203600F2000030F300831203132D08F4000A1691
:102046008A1598260A168A11013083120313AB07E4
:102056000318AC0A0030AC072C08803AAA002908FD
:10206600803A2A02031D392828082B02031C3C2823
:102076003D281A28831203132D08A00027080A16E4
:102086008A15F3250A168A110800493083120313AC
:102096009F001F151F19502851284D281E0883120E
:1020A6000317D200831603131E0883120317D100E9
:1020B6004A308400E83083160313D6000408D7009C
:1020C6000730D8005608840083170008D900D60ABE
:1020D6005708840059088000D70AD80B6528423073
:1020E6008400E030D6000408D7000830D80056082F
:1020F600840083170008D900D60A570884005908B7
:102106008000D70AD80B7A280F30D1008312031724
:10211600520883160313D30083120317510883163C
:102126000313D20010300A168A1511250A168A11D1
:10213600831203175208803AFF0080307F02031D86
:10214600A628C83051020318A928AA28B428831241
:10215600031387144A300A168A1549270A168A1164
:10216600BD2883120313871042300A168A154927A1
:102176000A168A1108000310740D750D83120313D5
:10218600A1002108031DC828C928D2280030F5005F
:102196000030F4000030F3000030F20035297208F8
:1021A600F6007308F7007408F8007508F9001F3088
:1021B6000310F90CF80CF70CF60CFF3E031DDB2898
:1021C6007608A000F417FF30F205FF30F305FF3064
:1021D600F4050030F5059630A102A11FF328F42876
:1021E6000E292108803A973E0318FA28FB28FC2876
:1021F600C92801300310F50CF40CF30CF20CFF3E69
:10220600031DFD280130FF007F08A107031D0C29CF
:102216000D29FC28252920302102031C1329142905
:102226002029C9280130F6000310F20DF30DF40D34
:10223600F50DF60B17290130A1022108031D2429EB
:10224600252915292008031929292A293529F209BA
:10225600F309F409F509F20A0319F30A0319F40A52
:102266000319F50A08000030831203133F05F60030
:1022760000304005F70080304105F8007F30420508
:10228600F9007908780477047604031D4B294C2954
:1022960054290030C2000030C1000030C0000030B8
:1022A600BF0000304305F60000304405F7008030DB
:1022B6004505F8007F304605F9007908780477046B
:1022C6007604031D6729682970290030C60000308E
:1022D600C5000030C4000030C300C21F7329742932
:1022E60098290030F6000030F7000030F800803002
:1022F600F9003F08F6024008031C400F8329842991
:10230600F7024108031C410F89298A29F80242086D
:10231600031C420F8F299029F9027908C200780818
:10232600C1007708C0007608BF00C61F9B299C29FC
:10233600C0290030F6000030F7000030F800803089
:10234600F9004308F6024408031C440FAB29AC29E4
:10235600F7024508031C450FB129B229F8024608C1
:10236600031C460FB729B829F9027908C600780870
:10237600C5007708C4007608C3008030C2068030E6
:10238600C60646084202031DD22945084102031D1E
:10239600D22944084002031DD22943083F020318EC
:1023A600D529D629D8290310D92903140800831260
:1023B6000313A00020080319E129E229F629F51FD5
:1023C600E529E629F6297209A2007309A300740912
:1023D600A4007509A500A20A0319A30A0319A40AF1
:1023E6000319A50AFE297508A5007408A400730838
:1023F600A3007208A2007508740473047204031D16
:10240600052A062A0F2A0030F5000030F4000030B5
:10241600F3000030F200932A9630A1001F2A013003
:10242600FF007F08A10701300310A50CA40CA30C24
:10243600A20CFF3E031D172AFE302505031D242A84
:10244600252A122A412A0130FF007F08A107013000
:10245600A207003003180130A3070030031801302B
:10246600A407003003180130A50701300310A50C9E
:10247600A40CA30CA20CFF3E031D392AFF30250530
:10248600031D462A472A262A532A0130A102013073
:10249600F6000310A20DA30DA40DA50DF60B4C2AF4
:1024A600A41B562A572A5D2A0230210203185C2AE9
:1024B6005D2A482A2118602A612A692AFF30A20566
:1024C600FF30A3057F30A405FF30A5050310A10C3E
:1024D6002108F600F701F801F90118300310F60D8E
:1024E600F70DF80DF90DFF3E031D712A7608A204BB
:1024F6007708A3047808A4047908A504200803191A
:10250600852A862A8B2AF51F892A8A2A8B2AA517C5
:102516002508F5002408F4002308F3002208F20039
:1025260008004130831203139F001F151F199C2AB0
:102536009D2A992A831603131E08D600D7018312F3
:1025460003131E0883160313D800D9015808D900AF
:10255600D80156085804F20057085904F300F4014C
:10256600F31BF4037408F50001300A168A11DA2108
:102576000A168A11750883160313DD007408DC0039
:102586007308DB007208DA00403083120313A800D8
:102596009C30A7002830A600F630A500831603134A
:1025A6005D0883120313AC00831603135C088312C1
:1025B6000313AB00831603135B0883120313AA00ED
:1025C600831603135A0883120313A9000A128A15E5
:1025D600BB240A168A1183120313280883160313D1
:1025E600E10083120313270883160313E000831206
:1025F6000313260883160313DF008312031325082B
:1026060083160313DE004130F5002030F40000305D
:10261600F3000030F2006108F9006008F8005F0876
:10262600F7005E08F6000A128A158E200A168A112D
:10263600750883160313E5007408E4007308E300C5
:102646007208E2000130D1006508D5006408D400A4
:102656006308D3006208D20010300A168A151125C5
:102666000A168A1110300A168A1549270A168A117F
:10267600413083120313C200C830C1000030C000CD
:102686000030BF0083160313650883120313C600C8
:1026960083160313640883120313C50083160313FA
:1026A600630883120313C40083160313620883129C
:1026B6000313C3000A168A1136210A168A11031853
:1026C600652B662B6A2B8312031307146D2B83125B
:1026D60003130710080083120313B000AF1B742BFB
:1026E600762B0130772B0030B700EB1B7B2B7C2B36
:1026F600802BFD30FF007F08EC05EB1F832B842B1E
:10270600892B0130B3000030B4008D2B6B08B40068
:102716006A08B3007B08B6007A08B50037080319C3
:10272600952B962BAC2BFF30B5070318B60AFF3056
:10273600B6073708031DA02BA12BA62B2B30B10003
:102746000030B200AA2B2D30B1000030B2003108A3
:10275600B7004F30B8000030B90083160317DF0109
:10276600FA2BFF3083120313B8070318B90AFF3098
:10277600B9073808903E84000A30F2000030F300B2
:102786002F08F5002E08F4000A168A15F0260A16F8
:102796008A117308F9007208F8000A168A15A4242B
:1027A6000A168A117808303E83178000FF3083129C
:1027B6000313B3070318B40AFF30B407FF30B50795
:1027C6000318B60AFF30B6070A30F2000030F300ED
:1027D6002F08F5002E08F4000A128A1197270A1608
:1027E6008A11730883120313AF007208AE008312B6
:1027F60003133908803AFF0080307F02031D052C41
:1028060001303802031C082C092C332C83120313C5
:102816002E082F04031D102C112CB42B3408803ADB
:10282600FF0080307F02031D1A2C0130330203188B
:102836001D2C1E2CB42B831203133608803AFF007E
:1028460080307F02031D292C01303502031C2C2CFD
:102856002D2C332C83120313EC18322C332CB42B6F
:102866008312031337080319392C3A2C462CFF30F0
:10287600B8070318B90AFF30B9073808903E840034
:102886003708831780003808903EA7003608A9004D
:102896003508A80030080A168A110E200A168A1171
:1028A600080083160313690883120313C5008316F1
:1028B6000313680883120313C400831603136708FF
:1028C60083120313C30083160313660883120313CC
:1028D600C2003508C5003408C4003308C3003208F6
:1028E600C2004208B6004308B7004408B8004508CD
:1028F600B90017300310B90CB80CB70CB60CFF3E74
:10290600031D7D2CFF303605BA0000303705BB00AD
:102916003A08813EC0003B080318013EFF3EC10055
:102926004108803AFF0080307F02031D9C2C17303F
:102936004002031C9F2CA02CA12C622D8312031392
:10294600C11BA62CA72C172D400AFF00FF30B6008E
:10295600FF30B7007F30B8000030B900B72C390D12
:10296600B90CB80CB70CB60CFF0BB22C3908BF006B
:102976003808BE003708BD003608BC003C084205D2
:10298600B6003D084305B7003E084405B8003F08B9
:102996004505B9003908380437043604031DD42C1C
:1029A600D52CD62CA02C4208B6004308B700440804
:1029B600B8004508B9001F300310B90CB80CB70CA5
:1029C600B60CFF3E031DDF2C3908380437043604E5
:1029D6000319EE2CEF2C062D3C08C2073D08031107
:1029E6000318013E0319F82CC3073E080311031808
:1029F600013E0319FF2CC4073F0803110318013ECB
:102A06000319062DC5073C09B6003D09B7003E0966
:102A1600B8003F09B9003608C2053708C3053808AB
:102A2600C4053908C5055A2D4208B6004308B70043
:102A36004408B8004508B9001F300310B90CB80C9B
:102A4600B70CB60CFF3E031D202D39083804370499
:102A56003604031D2F2D302D392D0030C5000030D2
:102A6600C4000030C3000030C2005A2D4208B60030
:102A76004308B7004408B8004508B9000130031000
:102A8600B60DB70DB80DB90DFF3E031D422D390821
:102A96003804370436040319512D522D5A2DBF30F0
:102AA600C5008030C4000030C3000030C2004508B5
:102AB600B5004408B4004308B3004208B200080059
:102AC60083160313AF00C201831203134A08831649
:102AD6000313C60083120313490883160313C500A4
:102AE60083120313480883160313C40083120313C7
:102AF600470883160313C300460883120313C20054
:102B060083160313450883120313C10083160313A8
:102B1600440883120313C000831603134308831269
:102B26000313BF000030C6000030C5000030C400EB
:102B36000030C3000A168A1136210A168A110318B4
:102B4600A52DA62DC12D83160313C201C20A460860
:102B5600F5004508F4004408F3004308F2000A169D
:102B66008A1103200A168A11750883160313C600F4
:102B76007408C5007308C4007208C30083160313E3
:102B8600C701C8017B08B7007A08B60042080319D6
:102B9600CD2DCE2DDE2D4208031DD22DD32DD82DC1
:102BA6002B30A6000030A700DC2D2D30A60000300B
:102BB600A7002608C2004608F5004508F4004408A8
:102BC600F3004308F2000A128A1501200A168A1138
:102BD60072037304031DF02DF12D342E8316031397
:102BE60042080319F72DF82D082E420883160317FD
:102BF6009000FF3083160313B6070318B70AFF3099
:102C0600B7070130C7000030C8001730F200470888
:102C1600903E0A168A15F6240A168A11FD30831686
:102C26000313B6070318B70AFF30B70790308312AD
:102C36000313A70083160313370883120313A9008F
:102C460083160313360883120313A800831603138F
:102C56002F080A168A110E200A168A110A128A11DC
:102C6600962F831603134608F5004508F40044081A
:102C7600F3004308F2000A128A1501200A168A1187
:102C860072087304031D482E4B2E0A128A113F2820
:102C96008316031342080319512E522E622E420840
:102CA600831603179000FF3083160313B607031825
:102CB600B70AFF30B7070130C7000030C8001B3025
:102CC600F2004708903E0A168A15F6240A168A115B
:102CD600FD3083160313B6070318B70AFF30B7078C
:102CE600903083120313A700831603133708831249
:102CF6000313A90083160313360883120313A800CF
:102D0600831603132F080A168A110E200A168A1133
:102D1600312E83120313D800831603134D08840043
:102D26008313000884000A168A1500200A168A11E1
:102D3600253A031D9F2EA02EE62F0130FF004D08D9
:102D460084007F088007FA01FB0103100030031896
:102D5600013083120313EC00FF30EA00FF30EB0072
:102D6600D201D52E83120313EC140130FF00831613
:102D760003134D0884007F088007D52E83120313A2
:102D8600D201D20AD52E831603134D0884000008FB
:102D960084000A168A1500200A168A11303A031989
:102DA600B52EC12E831252080319DA2EDB2EC62E3B
:102DB600831603134D088400000884000A168A153A
:102DC60000200A168A112E3A031DEA2EEB2EFF2E3C
:102DD6000130FF004D0884007F0880074E08F80088
:102DE6004D080A168A15A4270A168A11790883122D
:102DF6000313EB007808EA00831603134D088400DA
:102E06008313000883120313D900590884000A1695
:102E16008A1500200A168A11643A0319132F142FF3
:102E2600202F590884000A168A1500200A168A11CE
:102E3600693A031D1F2F202F452F831603134E08B3
:102E460084000008FF00023080077F088400000825
:102E560083120313D300840A0008D40083160313D5
:102E66004D088400831203135908013E800054085C
:102E7600AF005308AE0058080A168A116E230A16C8
:102E86008A11FF2F831603134D088400000883124E
:102E96000313D900590884000A168A1500200A1659
:102EA6008A11D700602F0130FF007F08D9076B2FEA
:102EB6006C30D7006B2FD7016B2F57084C3A03198C
:102EC600562F2A3A03195B2F0A3A0319562F5E2FFB
:102ED600590884000A168A1500200A168A11663ACD
:102EE600031D762F772FDC2FA82F831603134E088A
:102EF60084000008FF00043080077F088400000873
:102F060083120313D300840A0008D400840A00083D
:102F1600D500840A0008D600B02F831603134E0886
:102F260084000008FF00043080077F088400000842
:102F360083120313D300840A0008D400840A00080D
:102F4600D500840A0008D600B02F57084C3A03195A
:102F5600902F203A0319782FB02F831603134D08AC
:102F66008400831203135908013E8000D12F5608AE
:102F7600CA005508C9005408C8005308C7005908B4
:102F860084000A168A1500200A168A11CB005808F2
:102F96000A168A1163250A168A11FF2F590884001A
:102FA6000A168A1500200A168A11663A0319BA2FDC
:102FB600DC2F0130FF00831603134D0884007F08C1
:102FC60083138007FF2F4D088400000884000A162B
:102FD6008A1500200A168A1183120313D000D10124
:102FE6005008F2005108F3005808F4000A168A1532
:102FF60098260A168A11DC2F080018308A00040861
:10300600840A82070034543445344D345034203415
:103016003D342034253430342E34323466340D3485
:103026000034613420343D342034253464340D3486
:10303600003469346E34663400346E3461346E3470
:02304600003454
:1039040064008001840A0406031900340406832C2D
:103914008312031307168B1071088A00700E83003C
:10392400FE0E7E0E09004C346534643420346F344A
:103934006634663400344C346534643420346F3473
:103944006E340034F91BA72CA82CA92CB62C7809AA
:1039540083120313A0007909A100A00A0319A10A84
:103964002008F8002108F90008007E088A007F0872
:1039740082000A168A15B7240A168A158000840A5A
:1039840004087D0603190034FF0A0319FE0ABB2C40
:10399400F51BCD2CCE2CCF2CDE2C7209F200730932
:1039A400F3007409F4007509F500F20A0319F30A27
:1039B4000319F40A0319F50A0800F5007508F40060
:1039C400E72C0130FF007F08F50775088400831792
:1039D4000008031DEE2CEF2CE32C74087502F20092
:1039E400F301F21BF3030800F4007408F300013040
:1039F400F207FF30720784000A168A1500200A169F
:103A04008A15FF00730884000130F3077F088317C9
:103A140080000008031D0F2D102DF92C08008312BF
:103A24000313DD00D230DE005D08DF00E101E201B6
:103A3400E801E901831603135108CF005E30D0007A
:103A44005F300A168A151D260A168A158312031377
:103A540061085D07DC005C088400831780010800AE
:103A6400803083120313C2064608F5004508F400AB
:103A74004408F3004308F2004208F9004108F80042
:103A84004008F7003F08F6000A128A1563220A1656
:103A94008A15750883120313C2007408C1007308E1
:103AA400C0007208BF000800F601F701721C5B2D0C
:103AB4005C2D622D7408F6070318F70A7508F707DA
:103AC40001300310F40DF50DFF3E031D632D01308D
:103AD4000310F30CF20CFF3E031D6A2D72087304ED
:103AE400031D752D762D582D7708F3007608F20006
:103AF4000800F5007208F8007508F700922D7808A0
:103B0400840083170008F6000130FF007F08F807DF
:103B140077088400760880000130FF007F08F707EB
:103B24000130F3020030031CF403F402730A031D92
:103B34009F2D740A031D9F2DA02D812D0800831233
:103B44000313A400A001A1017208F400F501740894
:103B5400A2007508A300241CB02DB12DB72D220896
:103B6400A0070318A10A2308A10701300310A20D1E
:103B7400A30DFF3E031DB82D0310A40C2408031D40
:103B8400C42DC52DAD2D2108F3002008F200080036
:103B9400033083160313850087010F3086008312D8
:103BA400031387018030831603139F002430980089
:103BB400903083120313980019308316031399006D
:103BC4008B170B1601170A168A1194220A168A15E6
:103BD4000A168A1148200A168A15E52D0A128A1136
:103BE4000C2883120313A300A501A6010F2E240899
:103BF400A100A2012108F2002208F3002008F40029
:103C04000A168A1598260A168A1501308312031398
:103C1400A5070318A60A0030A60725082307A10054
:103C24002108840083170008A4002408031D1B2E08
:103C34001C2EF92D080083120313DA0083160313D4
:103C44004F0883120313DB00352E5B3083160313F6
:103C5400CD005008CE00831203135A080A168A11A5
:103C64008C260A168A15831203135B0884000A162D
:103C74008A1500200A168A15003A031D422E432E87
:103C8400272E83160313CF01D001080000307205DC
:103C940083120313A00000307305A1008030740563
:103CA400A2007F307505A300230822042104200408
:103CB400031D5D2E5E2E662E0030F5000030F400EC
:103CC4000030F3000030F20000307605A000003030
:103CD4007705A10080307805A2007F307905A30024
:103CE4002308220421042004031D792E7A2E822E17
:103CF4000030F9000030F8000030F7000030F60022
:103D040079087506031D902E78087406031D902EFD
:103D140077087306031D902E760872060319932EF6
:103D2400942E962E0310972E03140800740803197A
:103D34009C2E9D2EA22E7408031DA12EA22EA92E08
:103D440072080A128A11FE270A168A15EF2E7408C1
:103D5400093E840083130008F500840A0008F60075
:103D6400750876040319B72EB82ED62E7408093EAA
:103D740084000008F500840A0008F6007408023E76
:103D840084000008F700840A0008F8007808803AE4
:103D9400F9007608803A7902031DD22E750877025D
:103DA4000318D52ED62EEF2E7408023E84008313FA
:103DB4000008F5007408840000087507F60076080A
:103DC40084007208831780007408023E8400013066
:103DD40083138007840A0318800A0800F701F51F7B
:103DE400F42EF52EFC2EF409F509F40A0319F50A4C
:103DF400F701F70AF31FFF2E002F052FF209F3092D
:103E0400F20A0319F30A7208730403190A2F0B2F19
:103E14003A2FF601F60A192F01300310F20DF30DB3
:103E2400FF3E031D0F2F0130FF007F08F607F31F2D
:103E34001C2F1D2F0E2F73087502031D232F7208CC
:103E44007402031C262F272F2D2F7208F4027308E7
:103E5400031CF503F50201300310F30CF20CFF3ED2
:103E6400031D2E2F0130F602031D392F3A2F1D2F6B
:103E7400770803193E2F3F2F442FF409F509F40A5C
:103E84000319F50A7508F3007408F2000800831298
:103E94000313A400A201A301642F22082407F6003F
:103EA400760884000008990083160313981C5B2F7E
:103EB4005C2F562F013083120313A2070318A30AA1
:103EC4000030A30722082407F6007608840083172D
:103ED4000008031D6E2F6F2F4F2F0630F80013308C
:103EE400F700AD30F600F60B752FF70B752FF80BB6
:103EF400752F7C2F83120313A001A101912F083089
:103F0400990083160313981C882F892F832F01305F
:103F140083120313A0070318A10A0030A107240881
:103F24000A168A15DF240A168A15730883120313E6
:103F34002102031D9F2F72082002031CA22FA32F0E
:103F4400812F080083120313A300A101A2012308F7
:103F540084008313000884000A168A1500200A16B8
:103F64008A152A3A031DB72FB82FEA2F0130FF0014
:103F7400230884007F088007780884000008FF0075
:103F8400023080077F0884000008A100840A00082A
:103F9400A200FB2F2208F3002108F2000A30F400EB
:103FA4000030F5000A168A1556250A168A1583125A
:103FB400031320087207A1000030031801307307AF
:103FC400A2000130FF00230884007F0883138007C8
:103FD40023088400000884000A168A1500200A16A3
:103FE4008A15D03EA0000A302002031CFA2FFB2FB2
:0C3FF400CC2F2208F9002108F80008007A
:02400E00393F38
:00000001FF
